:100000000FC028C035C326C025C024C023C022C0CD
:1000100032C020C01FC01EC01DC035C276C2C10084
:1000200011241FBECFE5D2E0DEBFCDBF20E0A0E6A9
:10003000B0E001C01D92A73BB207E1F710E0C0E1BC
:10004000D0E003C02197FE0156D3CF30D107D1F7BE
:100050003FD057C3D5CFCF93C82F68E180E690E05B
:1000600076D06C2F80E690E069D080E690E0CF916A
:1000700070C0369A08951F920F920FB60F921124F6
:100080002F933F934F935F936F937F938F939F93A0
:10009000AF93BF93EF93FF9384B125B190E0922B80
:1000A0008536910510F081E001C080E0D4DFFF913A
:1000B000EF91BF91AF919F918F917F916F915F91E0
:1000C0004F913F912F910F900FBE0F901F90189559
:1000D00080E690E01BD0CDDF2FEF89E698E121503C
:1000E00080409040E1F700C00000F5CFE091630050
:1000F000F0916400309709F009940895E09165004B
:10010000F0916600309709F00994089521E0FC0110
:1001100020838EE790E06FD086E790E067D034C10F
:10012000CF93C62FFC01108262838EE790E063D0EC
:1001300086E790E05BD08C2FCF9162C0FC01862FC8
:100140009081911102C09181911149C15BC1862FAB
:100150002EC11F93CF93DF93EC018881811103C0DF
:1001600081E0898311D14FD1182F8981882321F013
:1001700019826A81CE01D4DF812FDF91CF911F9147
:100180000895E0E6F0E01082118212820895C29A8A
:10019000C29BFECF8DE08A95F1F70000C0988AE0FF
:1001A0008A95F1F700C0C298C09A779905C083E09C
:1001B0008093B60080E0089581E00895C098C29AC7
:1001C000B29BFECF8AE08A95F1F700C0C09A8DE01D
:1001D0008A95F1F700009EB1892F807295FD04C0C9
:1001E00094E09093B600089581E00895909368009C
:1001F00080936700089590936A0080936900089542
:1002000010928E0010928F0010926B0010926C0072
:1002100010928D001092B1008093B5008FEF8FB9CE
:1002200087B3856087BBC29AC09AB89888EA8DB9AF
:1002300080EF8EB98BB780628BBF8AB780628ABF2E
:10024000A89A08958EB98BE29DE09A95F1F7000087
:100250008DB9B29BFECF9AE09A95F1F700C08DB9A7
:10026000611108C0749B06C08091B500C9DF80E0B1
:100270009CE00895769BE8CF8DE08A95F1F7000029
:100280008FB19FEF9FB9B89A90E00895BF92CF9237
:10029000DF92EF92FF920F931F93CF93DF937C0136
:1002A000062F81E08093B600F701808180FD03C0B6
:1002B00083E08093B6006BDF882309F459C0102FC8
:1002C000E701BB24BA948091B600837099F1C2987B
:1002D0006E01FFEFCF1ADF0A88818FB960E080EFEF
:1002E000B1DF91112DC0B89861E08EEFABDF909136
:1002F000B60080FF06C090FF02C081E011C082E01E
:100300000FC0892F8570843071F4F701808181607E
:10031000808381E08093B6003ADF811108C08AE0D3
:100320008093B60025C09E7F9093B60019C0102F11
:10033000E70117C0B89860E080EF84DF992319F0D7
:100340009093B60015C06E01FFEFCF1ADF0A8883C5
:10035000113011F4BFB801C01FB861E08EEF72DF39
:10036000E601115009F0AFCF29DF91E0811101C002
:1003700090E0892FDF91CF911F910F91FF90EF9027
:10038000DF90CF90BF90089581E08093B1008BB74C
:100390008F7D8BBF1092B5008FEF8FB98AE28DB938
:1003A00080EF8EB9C09AC29AB89ABA9A08951092FC
:1003B0008E0010928F0010926B0010926C001092C1
:1003C0008D0090916C009F5F9F7190936C00E09105
:1003D0006C00F0E0E359FF4F880F808308959091FF
:1003E0006C009F5F9F7120916B00921749F0E92F7D
:1003F000F0E0E359FF4F808390936C0081E0089513
:1004000080E00895ECCFCF93DF93CDB7DEB7A09710
:100410000FB6F894DEBF0FBECDBF60E090916C00C8
:1004200080916B009817A9F080916B008F5F8F719E
:1004300080936B00E0916B00A1E0B0E0AC0FBD1FBA
:10044000A60FB11DF0E0E359FF4F80818C936F5FE1
:10045000E5CF8091B200882321F08BE08093B60035
:1004600009C0CE01019612DF811103C08091B60050
:1004700001C080E0A0960FB6F894DEBF0FBECDBFDE
:10048000DF91CF9108951F920F920FB60F92112412
:100490002F933F934F935F936F937F938F939F938C
:1004A000AF93BF93EF93FF9381E08093B200B8982E
:1004B000B29B02C0B09BFCCFB09910C088EF8DB941
:1004C0008091B000882351F080918D00E091670009
:1004D000F091680090E009951092B00080EF8EB91D
:1004E0001092B4001092B300FF91EF91BF91AF91C1
:1004F0009F918F917F916F915F914F913F912F913C
:100500000F900FBE0F901F9018951F920F920FB66D
:100510000F9211242F933F934F935F936F937F9389
:100520008F939F93AF93BF93EF93FF938091B3000B
:100530009091B4008230910509F459C028F40097D5
:10054000F1F00197C1F183C08430910509F458C0DE
:1005500030F1059709F07BC080918F008F5F8F711C
:1005600080938F00E0918F008FB1F0E0E057FF4F54
:10057000808380918D008F5F80938D004CC08FB100
:10058000882309F452C08FB190E09595879520910A
:10059000B50030E08217930709F055C046C08FB10F
:1005A000882349F088EA8DB980E78EB910926B00F4
:1005B00010926C004CC090916C0080916B00981769
:1005C00009F441C080916B008F5F8F7180936B0045
:1005D000E0916B00F0E0E359FF4F80818FB982E03A
:1005E00090E09093B4008093B300B89A2EC083E05B
:1005F00090E09093B4008093B300B8981FB813C0F4
:1006000085E090E09093B4008093B300B8981DC04B
:1006100081E08093B00084E090E09093B4008093F8
:10062000B3001FB8B89A8EE711C0789BF1CF81E074
:1006300090E09093B4008093B300E0916900F09152
:100640006A000995EECF88EA8DB980E78EB9FF91EF
:10065000EF91BF91AF919F918F917F916F915F913A
:100660004F913F912F910F900FBE0F901F901895B3
:100670001F920F920FB60F9211242F933F934F9317
:100680005F936F937F938F939F93AF93BF93EF93FA
:10069000FF93B09B1FC0B29B1DC082E18A95F1F70A
:1006A00000C0B09B17C0B29B15C01092B2008091E1
:1006B000B000882371F080918D00882341F08091F3
:1006C0008D00E0916700F091680090E0099510922C
:1006D000B000759AFF91EF91BF91AF919F918F916B
:1006E0007F916F915F914F913F912F910F900FBE2E
:1006F0000F901F901895EE0FFF1F0590F491E02DBD
:060700000994F894FFCFFC
:00000001FF
